:020000020000FC
:100000004FEF47B94AB915D01BD06FEF68B96BB93C
:10001000232F287009F05C98232F247009F05F9833
:10002000232F227009F04298232F217069F34398FF
:10003000EBCF1F9318EF14B917E015B91F9108956E
:1000400031E017EF15B913D020FD10C034E01FE7E1
:1000500015B90DD020FD0AC037E01FED15B907D046
:1000600020FD04C03AE01FEE15B901D0089513D069
:100070002E7F189902C021600895199903C0339505
:10008000216008951A9904C033953395216008952D
:0E00900033272E7F08951FEF1A95F1F708957C
:00000001FF
