:020000020000FC
:02000000FFC43B
:100A00000FEF0DBF08E00EBF4FD086D0A8D0FDD2AB
:100A100081D051D03030E1F33B3009F430E0D5D112
:100A2000532E50FD03C05160652CF2CF5E7F5F9264
:100A30006F9296D25F90509200145F929ED25F9018
:100A400004E605190F93C5D20F91B9D20F91009307
:100A50000114009100140F93A2D20F91802FFED0A9
:100A60000F91802FFBD0009101140F9398D20F911A
:100A7000802FF4D00F91802FF1D0FFCF36D1C6D187
:100A8000A4D133D1C7D1A1D130D1CCD2A2D287D277
:100A90000F91802FE3D00F91802FE0D00F91802F06
:100AA000DDD08ED10F91E9CF1F9318EF14B917E065
:100AB00015B91F91089531E017EF15B913D057FDFF
:100AC00010C034E01FE715B90DD057FD0AC037E05C
:100AD0001FED15B907D057FD04C03AE01FEE15B958
:100AE00001D0089513D05F77189902C05068089517
:100AF000199903C03395506808951A9904C0339525
:100B000033955068089533275F7708951FEF1A953E
:100B1000F1F7089530E0089508EF0093B80004EA73
:100B20000093BC000091BC0007FFFCCF0091B9000E
:100B3000087F083009F401C0D4D00EE40093BB0054
:100B400004E80093BC000091BC0007FFFCCF0091BB
:100B5000B900087F003209F001C0C3D008951DD14B
:100B600000E310E30093BB0004E80093BC006CD0EA
:100B7000A7D021D1A5D00AD1A3D01DD108E218E277
:100B80000093BB0004E80093BC005ED099D0FED077
:100B900008E218E20093BB0004E80093BC0054D0C4
:100BA0008FD008E818E80093BB0004E80093BC006D
:100BB0004BD086D008E018E00093BB0004E8009317
:100BC000BC0042D07DD008E818E80093BB0004E8E0
:100BD0000093BC0039D074D008E018E00093BB004B
:100BE00004E80093BC0030D06BD008E118E100931A
:100BF000BB0004E80093BC0027D062D008E018E0F6
:100C00000093BB0004E80093BC001ED059D008EF4D
:100C100018EF0093BB0004E80093BC0015D050D03F
:100C200008E018E00093BB0004E80093BC000CD07F
:100C300047D0C1D008E618E60093BB0004E8009353
:100C4000BC0002D03DD008950091BC0007FFFCCF4E
:100C50000091B900087F083291F50895082F007FB0
:100C60000960102F0093BB0004E80093BC00ECDF88
:100C700027D0082F000F000F000F000F0960102F62
:100C80000093BB0004E80093BC00DEDF19D0089598
:100C900008EC18EC0093BB0004E80093BC00D4DF20
:100CA0000FD008E018E00093BB0004E80093BC00FC
:100CB000CBDF06D0089504E90093BC00089511D05D
:100CC00065D014601093BB0004E80093BC00BCDF47
:100CD0001B7F1093BB0004E80093BC00B5DF0895B0
:100CE000FFCF04E90093BC00FBCF18E008E00093BD
:100CF000BB0004E80093BC00A7DFE2DF18E108E1D5
:100D00000093BB0004E80093BC009EDFD9DF089588
:100D100018E108E10093BB0004E80093BC0094DFF5
:100D2000CFDF18E808E80093BB0004E80093BC009C
:100D30008BDFC6DF08950A9511F4EADF00EA26D0BA
:100D40000895FF93EF9340E0439585918030E1F75C
:100D5000439585918030C1F74A954A95EF91FF916F
:100D60008591803019F494DF4A95FACF77DF4A9560
:100D7000B9F7089500E3300F802F70DF08950F93C7
:100D80000AE30A950000E9F70F9108950F9304E62E
:100D9000F6DF0A95E9F70F9108950F9302E3F6DF66
:100DA0000A95E9F70F9108950F930AE0F6DF0A9587
:100DB000E9F70F91089505E0E9DF0A95E9F708954D
:100DC0000CE3EBDF0A95E9F7089504E1E6DF0A9505
:100DD000E9F70895FEE0ECE1B4DF5ADFFEE0EAE275
:100DE000B0DF0895FEE0EAE3ACDF0895FEE0EEE652
:100DF000A8DF0895FEE0E2EAA4DF0895FEE0E6ED54
:100E0000A0DF0895FFE0ECE09CDF0895FFE0E6E25C
:100E100098DF0895FFE0ECE394DF08954249454EE2
:100E200056454E49444F532100002A2A2A434F4336
:100E30004B2D5441494C2A2A000053656C6563636D
:100E4000696F6E65206D6F646F206465206F7065DB
:100E5000726163696F6E3A00312D42617369636F2D
:100E600020322D4176616E7A61646F000000536517
:100E70006C656363696F6E65206265626964613A7F
:100E800000312D4665726E657420322D5768697386
:100E9000636F6C6120332D436F63612D436F6C6111
:100EA000000053656C656363696F6E6520706F74D5
:100EB000656E6369613A00312D436F72646F6265DC
:100EC0007320322D4D6564696120332D496E666152
:100ED0006E74696C000053656C656363696F6E6561
:100EE000207072696D657261206265626964613A41
:100EF00000312D4665726E657420322D5768697316
:100F00006B7920332D436F6361000000496E74726A
:100F10006F64757A636100706F7263656E74616A85
:100F2000653A200000004573706572652000706F9F
:100F300072206661766F722E2E2E00004C697374DB
:100F40006F21205265746972652073750062656255
:100F500069646120706F72206661766F72000000B4
:100F6000FF91EF910F910F700295502E0F910F701E
:100F700005290F93EF93FF930895FF91EF910F9140
:100F80000F930F70502E0F9102950F70602E0AE094
:100F9000609E3001651C6F92EF93FF930895FF915F
:100FA000EF910F910F930F700063502E0F915F928E
:100FB00002950F7000630F93EF93FF930895FF91D5
:100FC000EF915F900F91529405290F93EF93FF9348
:100FD0000895FF91EF914F900AE0202E0ED0042D3E
:100FE000402E4F92432C09D0042D402E4F92032DBA
:100FF000302E3F92EF93FF93089500E0302E33940C
:101000004218E8F73A94420C089508E10093C100B1
:1010100006E00093C20007E70093C40000E00093DD
:10102000C5000895FF91EF9105E509D0B6DE0ED019
:101030000F930CD00F930AD0EF93FF930895509025
:10104000C00055FEFCCF0093C60008955090C0002C
:0A10500055FEFCCF0091C600089584
:00000001FF
