:020000020000FC
:1000000000C00FEF0DBF08E00EBF4FEF47B94AB970
:1000100059D090D0B2D0E5D1DAD175D1EAD190EAF9
:1000200072D1E7D185D095D154D0313019F032302A
:10003000B1F0F9CF68D1E1D17BD0CED18AD149D00E
:100040003030E1F33330D0F75ED1DBD171D0C4D1A1
:1000500080D13FD03030E1F33430D0F72CC053D1D1
:10006000D4D166D0B9D175D134D03030E1F333304A
:10007000D0F749D1CED15CD0AFD15AD02AD03030D0
:10008000E1F300E33B3009F430E0300F832FF4D08C
:10009000A3D13F9350FD02C05160EFCF5E7F87D266
:1000A0006F9031D1BAD144D097D153D112D03030E2
:1000B000E1F33430D0F727D1B4D189D124D1B5D1EF
:1000C00086D1AECF1F9318EF14B917E015B91F9161
:1000D000089531E017EF15B913D020FD10C034E0BA
:1000E0001FE715B90DD020FD0AC037E01FED15B987
:1000F00007D020FD04C03AE01FEE15B901D00895E5
:1001000013D02E7F189902C021600895199903C059
:100110003395216008951A9904C033953395216071
:10012000089533272E7F08951FEF1A95F1F708954C
:1001300030E0089508EF0093B80004EA0093BC0093
:100140000091BC0007FFFCCF0091B900087F083088
:1001500009F401C0D4D00EE40093BB0004E800937E
:10016000BC000091BC0007FFFCCF0091B900087FE4
:10017000003209F001C0C3D008951DD100E310E39F
:100180000093BB0004E80093BC006CD0A7D01AD148
:10019000A5D00AD1A3D016D108E218E20093BB0083
:1001A00004E80093BC005ED099D0FED008E218E2CB
:1001B0000093BB0004E80093BC0054D08FD008E843
:1001C00018E80093BB0004E80093BC004BD086D035
:1001D00008E018E00093BB0004E80093BC0042D0A4
:1001E0007DD008E818E80093BB0004E80093BC0049
:1001F00039D074D008E018E00093BB0004E8009305
:10020000BC0030D06BD008E118E10093BB0004E8DB
:100210000093BC0027D062D008E018E00093BB0038
:1002200004E80093BC001ED059D008EF18EF0093EB
:10023000BB0004E80093BC0015D050D008E018E0E3
:100240000093BB0004E80093BC000CD047D0BAD0A8
:1002500008E618E60093BB0004E80093BC0002D057
:100260003DD008950091BC0007FFFCCF0091B9007C
:10027000087F083291F50895082F007F0960102F3C
:100280000093BB0004E80093BC00ECDF27D0082FEC
:10029000000F000F000F000F0960102F0093BB002C
:1002A00004E80093BC00DEDF19D0089508EC18ECD8
:1002B0000093BB0004E80093BC00D4DF0FD008E03B
:1002C00018E00093BB0004E80093BC00CBDF06D02D
:1002D000089504E90093BC00089511D065D014601E
:1002E0001093BB0004E80093BC00BCDF1B7F10939D
:1002F000BB0004E80093BC00B5DF0895FFCF04E91C
:100300000093BC00FBCF18E008E00093BB0004E8BA
:100310000093BC00A7DFE2DF18E108E10093BB0017
:1003200004E80093BC009EDFD9DF089518E108E1DE
:100330000093BB0004E80093BC0094DFCFDF18E813
:1003400008E80093BB0004E80093BC008BDFC6DF25
:1003500008959A9511F4EADF90EA26D00895FF9364
:10036000EF9340E0439585918030E1F74395859187
:100370008030C1F74A954A95EF91FF918591803081
:1003800019F494DF4A95FACF77DF4A95B9F70895C3
:1003900000E3300F802F70DF08950F930AE30A9572
:1003A0000000E9F70F9108950F9304E6F6DF0A9530
:1003B000E9F70F9108950F9302E3F6DF0A95E9F745
:1003C0000F91089505E0F0DF0A95E9F708950CE331
:1003D000F2DF0A95E9F7089504E1EDDF0A95E9F700
:1003E0000895F4E0E2E3BBDF61DFF4E0E0E4B7DFCF
:1003F0000895F4E0E0E5B3DF0895F4E0E4E8AFDF6A
:100400000895F4E0E8EBABDF0895F4E0ECEEA7DF4D
:100410000895F5E0EAE5A3DF0895F5E0E2E29FDF65
:100420000895F5E0E4E79BDF0895F5E0EAE897DF5B
:1004300008954249454E56454E49444F53210000C8
:100440002A2A2A434F434B2D5441494C2A2A000063
:1004500053656C656363696F6E65206D6F646F20B3
:100460006465206F7065726163696F6E3A00312D4B
:1004700042617369636F20322D4176616E7A6164E7
:100480006F00000053656C656363696F6E65206281
:1004900065626964613A00312D4665726E6574204B
:1004A000322D57686973636F6C6120332D436F631E
:1004B000612D436F6C61000053656C656363696F08
:1004C0006E6520706F74656E6369613A00312D430B
:1004D0006F72646F62657320322D4D6564696120AF
:1004E000332D496E66616E74696C000053656C65EE
:1004F0006363696F6E65207072696D6572612062F9
:1005000065626964613A00312D4665726E657420DA
:10051000322D576869736B7920332D436F63610007
:10052000000053656C656363696F6E652073656772
:10053000756E6461206265626964613A0020312DE4
:100540004665726E657420322D576869736B792029
:10055000332D436F636120000000496E74726F6435
:10056000757A636100706F7263656E74616A653A73
:10057000200000004573706572652000706F722066
:100580006661766F722E2E2E00004C6973746F2197
:1005900020526574697265207375006265626964D2
:1005A0006120706F72206661766F72000000FF91AB
:1005B000EF910F910F700295402E0F910F7004294B
:0805C0000F93EF93FF930895E0
:00000001FF
