:020000020000FC
:100000004FEF47B94AB908D04BD06DD00CD000E3C0
:10001000300F832FE7D0FACF1F9318EF14B917E0F2
:1000200015B91F91089531E017EF15B913D020FDD0
:1000300010C034E01FE715B90DD020FD0AC037E02D
:100040001FED15B907D020FD04C03AE01FEE15B929
:1000500001D0089513D02E7F189902C02160089511
:10006000199903C03395216008951A9904C03395F6
:1000700033952160089533272E7F08951FEF1A9539
:10008000F1F7089502E004B900E005B909D02BD0DA
:1000900016D1C2D00CD1D3D002E005B9FFCFF2CF38
:1000A00008EF0093B80004EA0093BC000091BC0084
:1000B00007FFFCCF0091B900087F083009F401C0A8
:1000C000F2D00EE40093BB0004E80093BC00009162
:1000D000BC0007FFFCCF0091B900087F003209F097
:1000E00001C0E1D00895BDD000E310E30093BB0050
:1000F00004E80093BC006CD0C5D0BAD0C3D0AAD05D
:10010000C1D0B6D008E218E20093BB0004E8009327
:10011000BC005ED0B7D09ED008E218E20093BB00CE
:1001200004E80093BC0054D0ADD008E818E8009370
:10013000BB0004E80093BC004BD0A4D008E018E05A
:100140000093BB0004E80093BC0042D09BD008E8B9
:1001500018E80093BB0004E80093BC0039D092D0AB
:1001600008E018E00093BB0004E80093BC0030D026
:1001700089D008E118E10093BB0004E80093BC00BB
:1001800027D080D008E018E00093BB0004E800937B
:10019000BC001ED077D008EF18EF0093BB0004E836
:1001A0000093BC0015D06ED008E018E00093BB00AF
:1001B00004E80093BC000CD065D05AD008E618E6DD
:1001C0000093BB0004E80093BC0002D05BD008950C
:1001D0000091BC0007FFFCCF0091B900087F0832F6
:1001E00091F50895082F007F0960102F0093BB0040
:1001F00004E80093BC00ECDF45D0082F000F000F8F
:10020000000F000F0960102F0093BB0004E800935B
:10021000BC00DEDF37D0089508EC18EC0093BB007B
:1002200004E80093BC00D4DF2DD008E018E0009370
:10023000BB0004E80093BC00CBDF24D0089504E9A0
:100240000093BC0008952FD05F935AE35A95F1F7BD
:100250005F9108955F9354E6F7DF5A95E9F75F9150
:1002600008955F9352E3F6DF5A95E9F75F91089599
:1002700055E0F0DF5A95E9F708955CE3F2DF5A950F
:10028000E9F70895E7DF14601093BB0004E80093DA
:10029000BC009EDF1B7F1093BB0004E80093BC00F2
:1002A00097DF0895FFCF04E90093BC00FBCFF2E095
:1002B000EEEC4DE0859196DF4A95E1F70895F2E086
:1002C000ECED4FE085918EDF4A95E1F708954249C4
:1002D000454E56454E49444F532121302A2A2A4340
:1002E0004F434B2D5441494C2A2A2A3000E3300F0A
:0602F000802F78DF089565
:00000001FF
