:020000020000FC
:1000000000C04FEF47B94AB92BD060D082D0A0D101
:100010009AD145D1A5D12BD0313019F0323071F0C1
:10002000FACF3DD1A1D123D03430E8F738D1A0D1D7
:100030001ED03030E9F33330D8F711C030D19CD125
:1000400016D03030E9F33330D8F729D199D10FD019
:100050003030E9F33330D8F722D196D108D0DBCF56
:100060001F9318EF14B917E015B91F91089531E0E7
:1000700017EF15B913D020FD10C034E01FE715B9F4
:100080000DD020FD0AC037E01FED15B907D020FDC7
:1000900004C03AE01FEE15B901D0089513D02E7FA9
:1000A000189902C021600895199903C03395216001
:1000B00008951A9904C03395339521600895332724
:1000C0002E7F08951FEF1A95F1F7089508EF00931A
:1000D000B80004EA0093BC000091BC0007FFFCCF0D
:1000E0000091B900087F083009F401C0D4D00EE4B3
:1000F0000093BB0004E80093BC000091BC0007FF24
:10010000FCCF0091B900087F003209F001C0C3D0D4
:1001100008950DD100E310E30093BB0004E80093C1
:10012000BC006CD0A7D00AD1A5D0FAD0A3D006D1FC
:1001300008E218E20093BB0004E80093BC005ED024
:1001400099D0EED008E218E20093BB0004E80093D7
:10015000BC0054D08FD008E818E80093BB0004E836
:100160000093BC004BD086D008E018E00093BB00A1
:1001700004E80093BC0042D07DD008E818E8009362
:10018000BB0004E80093BC0039D074D008E018E04C
:100190000093BB0004E80093BC0030D06BD008E1B2
:1001A00018E10093BB0004E80093BC0027D062D0A4
:1001B00008E018E00093BB0004E80093BC001ED0E8
:1001C00059D008EF18EF0093BB0004E80093BC007F
:1001D00015D050D008E018E00093BB0004E800936D
:1001E000BC000CD047D0AAD008E618E60093BB00AC
:1001F00004E80093BC0002D03DD008950091BC00FB
:1002000007FFFCCF0091B900087F083291F50895EF
:10021000082F007F0960102F0093BB0004E80093B3
:10022000BC00ECDF27D0082F000F000F000F000FDD
:100230000960102F0093BB0004E80093BC00DEDFD0
:1002400019D0089508EC18EC0093BB0004E8009363
:10025000BC00D4DF0FD008E018E00093BB0004E836
:100260000093BC00CBDF06D0089504E90093BC00E6
:10027000089511D055D014601093BB0004E800938A
:10028000BC00BCDF1B7F1093BB0004E80093BC00E4
:10029000B5DF0895FFCF04E90093BC00FBCF18E061
:1002A00008E00093BB0004E80093BC00A7DFE2DF96
:1002B00018E108E10093BB0004E80093BC009EDF56
:1002C000D9DF089518E108E10093BB0004E800932A
:1002D000BC0094DFCFDF18E808E80093BB0004E817
:1002E0000093BC008BDFC6DF0895FF93EF9340E0DF
:1002F000439585918030E1F74A95EF91FF91859183
:1003000087DF4A95E1F7089500E3300F802F80DF03
:1003100008955F935AE35A950000E9F75F910895B5
:100320005F9354E6F6DF5A95E9F75F9108955F937E
:1003300052E3F6DF5A95E9F75F91089555E0F0DF53
:100340005A95E9F708955CE3F2DF5A95E9F70895C5
:10035000F3E0E0E9CADF76DFF3E0EEE9C6DF089517
:10036000F3E0EEEAC2DF0895F3E0ECEEBEDF0895BD
:10037000F4E0E2E2BADF0895F4E0E8E5B6DF0895DC
:10038000F4E0E8ECB2DF0895F4E0E0E9AEDF0895D0
:100390004249454E56454E49444F532121002A2A91
:1003A0002A434F434B2D5441494C2A2A2A00536576
:1003B0006C656363696F6E65206D6F646F20646543
:1003C000206F706572616369F36E3A5C6E312D5017
:1003D000726564657465726D696E61646F5C7432B8
:1003E0002D50726563697369F36E200053656C6507
:1003F0006363696F6E65206265626964613A5C6E11
:10040000312D4665726E65745C74322D5768697360
:10041000636F6C615C74332D436F63612D436F6C4C
:10042000610053656C656363696F6E6520706F74FE
:10043000656E6369613A5C6E312D467565727465EF
:100440005C74322D4D656469615C74332D4D65209B
:100450006C6120636F6D6F0053656C656363696FDA
:100460006E65207072696D65726120626562696493
:10047000613A5C6E312D4665726E65745C74322D26
:10048000576869736B795C74332D436F6361200027
:1004900053656C656363696F6E6520736567756E20
:1004A0006461206265626964613A5C6E312D466503
:1004B000726E65745C74322D576869736B795C7405
:1004C000332D436F63612000496E74726F64757AD7
:1004D000636120706F7263656E74616A653A2000B3
:00000001FF
