:020000020000FC
:1000000025C05F9351E15A950000E9F75F9108958B
:100010005F9352E6F6DF5A95E9F75F9108955F9393
:1000200052E3F6DF5A95E9F75F91089555E0F0DF66
:100030005A95E9F708955CE3F2DF5A95E9F70895D8
:100040004FEF47B94AB908D03DD05FD00CD000E39C
:10005000300F832FD9D0FACF1F9318EF14B917E0C0
:1000600015B91F91089531E017EF15B913D020FD90
:1000700010C034E01FE715B90DD020FD0AC037E0ED
:100080001FED15B907D020FD04C03AE01FEE15B9E9
:1000900001D0089513D02E7F189902C021600895D1
:1000A000199903C03395216008951A9904C03395B6
:1000B00033952160089533272E7F08951FEF1A95F9
:1000C000F1F7089508EF0093B80004EA0093BC002C
:1000D0000091BC0007FFFCCF0091B900087F0830F9
:1000E00009F401C0D4D00EE40093BB0004E80093EF
:1000F000BC000091BC0007FFFCCF0091B900087F55
:10010000003209F001C0C3D0089589DF00E310E395
:100110000093BB0004E80093BC006CD0A7D086DF3E
:10012000A5D076DFA3D082DF08E218E20093BB00FF
:1001300004E80093BC005ED099D06ADF08E218E2C0
:100140000093BB0004E80093BC0054D08FD008E8B3
:1001500018E80093BB0004E80093BC004BD086D0A5
:1001600008E018E00093BB0004E80093BC0042D014
:100170007DD008E818E80093BB0004E80093BC00B9
:1001800039D074D008E018E00093BB0004E8009375
:10019000BC0030D06BD008E118E10093BB0004E84C
:1001A0000093BC0027D062D008E018E00093BB00A9
:1001B00004E80093BC001ED059D008EF18EF00935C
:1001C000BB0004E80093BC0015D050D008E018E054
:1001D0000093BB0004E80093BC000CD047D026DF9E
:1001E00008E618E60093BB0004E80093BC0002D0C8
:1001F0003DD008950091BC0007FFFCCF0091B900ED
:10020000087F083291F50895082F007F0960102FAC
:100210000093BB0004E80093BC00ECDF27D0082F5C
:10022000000F000F000F000F0960102F0093BB009C
:1002300004E80093BC00DEDF19D0089508EC18EC48
:100240000093BB0004E80093BC00D4DF0FD008E0AB
:1002500018E00093BB0004E80093BC00CBDF06D09D
:10026000089504E90093BC00089511D0D1DE146014
:100270001093BB0004E80093BC00BCDF1B7F10930D
:10028000BB0004E80093BC00B5DF0895FFCF04E98C
:100290000093BC00FBCFF2E0E6EB4DE08591B4DFCC
:1002A0004A95E1F70895F2E0E4EC4FE08591ACDF88
:1002B0004A95E1F708954249454E56454E49444F07
:1002C000532121302A2A2A434F434B2D5441494C74
:0E02D0002A2A2A3000E3300F802F96DF08958F
:00000001FF
