:020000020000FC
:1000000006C04FEF47B94AB906D03BD05DD058D1B2
:1000100052D106D1FCCF1F9318EF14B917E015B9D0
:100020001F91089531E017EF15B913D020FD10C0CE
:1000300034E01FE715B90DD020FD0AC037E01FEDF1
:1000400015B907D020FD04C03AE01FEE15B901D064
:10005000089513D02E7F189902C021600895199930
:1000600003C03395216008951A9904C033953395E0
:100070002160089533272E7F08951FEF1A95F1F719
:10008000089508EF0093B80004EA0093BC000091C3
:10009000BC0007FFFCCF0091B900087F083009F4CD
:1000A00001C0D7D00EE40093BB0004E80093BC006D
:1000B0000091BC0007FFFCCF0091B900087F00321F
:1000C00009F001C0C6D00895EAD000E310E3009320
:1000D000BB0004E80093BC006CD0AAD0E7D0A8D045
:1000E000D7D0A6D0E3D008E218E20093BB0004E822
:1000F0000093BC005ED09CD0CBD008E218E2009305
:10010000BB0004E80093BC0054D092D008E818E883
:100110000093BB0004E80093BC004BD089D008E0FA
:1001200018E00093BB0004E80093BC0042D080D0EC
:1001300008E818E80093BB0004E80093BC0039D03D
:1001400077D008E018E00093BB0004E80093BC00FF
:1001500030D06ED008E118E10093BB0004E80093B2
:10016000BC0027D065D008E018E00093BB0004E88D
:100170000093BC001ED05CD008EF18EF0093BB00CA
:1001800004E80093BC0015D053D008E018E00093B9
:10019000BB0004E80093BC000CD04AD087D008E62E
:1001A00018E60093BB0004E80093BC0002D040D0E6
:1001B00008950091BC0007FFFCCF0091B900087FB3
:1001C0000832A9F50895082F007F0960102F0093C9
:1001D000BB0004E80093BC00ECDF2AD0082F000F1E
:1001E000000F000F000F0960102F0093BB0004E800
:1001F0000093BC00DEDF1CD0089508EC18EC0093DF
:10020000BB0004E80093BC00D4DF12D008E018E083
:100210000093BB0004E80093BC00CBDF09D0089535
:10022000ECDFEBDF089504E90093BC00089511D0E2
:100230002FD014601093BB0004E80093BC00B9DF1A
:100240001B7F1093BB0004E80093BC00B2DF08954D
:10025000FFCF04E90093BC00FBCFFF93EF9340E096
:10026000439585918030E1F74A95EF91FF91859113
:10027000AADF4A95E1F7089500E3300F802FA3DF4E
:1002800008955F9351E15A950000E9F75F91089551
:100290005F9352E6F6DF5A95E9F75F9108955F9311
:1002A00052E3F6DF5A95E9F75F91089555E0F0DFE4
:1002B0005A95E9F708955CE3F2DF5A95E9F7089556
:1002C000F2E0EEECCADFF2E0ECEDC7DF0895424960
:1002D000454E56454E49444F532121002A2A2A4370
:1002E0004F434B2D5441494C2A2A2A0053656C65D3
:1002F0006363696F6E65206D6F646F206465206F46
:10030000706572616369F36E3A5C6E312D5072658F
:1003100064657465726D696E61646F5C74322D50D2
:0A032000726563697369F36E2000D3
:00000001FF
