:020000020000FC
:02000000FFC43B
:04002C000C9400022E
:100A00000FEF0DBF08E00EBF00E004B90AB9389A35
:100A1000399A3A9AF8941DD050D072D0C6D200E5D7
:100A20000093001402E00093021404E10093011407
:100A300001E000930314409A99D1409897D1419ACC
:100A400095D1419893D1429A91D142980E94FD0745
:100A5000FFCF1F9318EF14B917E015B91F91089530
:100A600031E017EF15B90DD057FD0AC037E01FED83
:100A700015B907D057FD04C03AE01FEE15B901D0F3
:100A8000089515D05F77189902C0506808950FD067
:100A9000199903C033955068089509D01A9904C074
:100AA000339533955068089533275F7708951FEF86
:100AB0001A95F1F7089530E0089508EF0093B80013
:100AC00004EA0093BC000091BC0007FFFCCF00913A
:100AD000B900087F083009F401C0D4D00EE40093B7
:100AE000BB0004E80093BC000091BC0007FFFCCFF2
:100AF0000091B900087F003209F001C0C3D0089509
:100B00001DD100E310E30093BB0004E80093BC0098
:100B10006CD0A7D021D1A5D00AD1A3D01DD108E295
:100B200018E20093BB0004E80093BC005ED099D0AB
:100B3000FED008E218E20093BB0004E80093BC007A
:100B400054D08FD008E818E80093BB0004E8009365
:100B5000BC004BD086D008E018E00093BB0004E84E
:100B60000093BC0042D07DD008E818E80093BB0099
:100B700004E80093BC0039D074D008E018E000937A
:100B8000BB0004E80093BC0030D06BD008E118E152
:100B90000093BB0004E80093BC0027D062D008E0BB
:100BA00018E00093BB0004E80093BC001ED059D0AD
:100BB00008EF18EF0093BB0004E80093BC0015D0C9
:100BC00050D008E018E00093BB0004E80093BC009C
:100BD0000CD047D0C1D008E618E60093BB0004E86B
:100BE0000093BC0002D03DD008950091BC0007FFE7
:100BF000FCCF0091B900087F083291F50895082FC5
:100C0000007F0960102F0093BB0004E80093BC0034
:100C1000ECDF27D0082F000F000F000F000F096036
:100C2000102F0093BB0004E80093BC00DEDF19D056
:100C3000089508EC18EC0093BB0004E80093BC0096
:100C4000D4DF0FD008E018E00093BB0004E8009365
:100C5000BC00CBDF06D0089504E90093BC000895E2
:100C600011D065D014601093BB0004E80093BC0061
:100C7000BCDF1B7F1093BB0004E80093BC00B5DF12
:100C80000895FFCF04E90093BC00FBCF18E008E013
:100C90000093BB0004E80093BC00A7DFE2DF18E18B
:100CA00008E10093BB0004E80093BC009EDFD9DF9D
:100CB000089518E108E10093BB0004E80093BC002C
:100CC00094DFCFDF18E808E80093BB0004E8009346
:100CD000BC008BDFC6DF08950A9511F4EADF00EA55
:100CE00026D00895FF93EF9340E04395859180309F
:100CF000E1F7439585918030C1F74A954A95EF9188
:100D0000FF918591803019F494DF4A95FACF77DF0F
:100D10004A95B9F7089500E3300F802F70DF0895EA
:100D20000F930AE30A950000E9F70F9108950F93D6
:100D300004E6F6DF0A95E9F70F9108950F9302E3B1
:100D4000F6DF0A95E9F70F9108950F930AE0F6DFB1
:100D50000A95E9F70F91089505E0E9DF0A95E9F7AB
:100D600008950CE3EBDF0A95E9F7089504E1E6DF67
:100D70000A95E9F70895FDE0EEEBB4DF5ADFFDE0F8
:100D8000ECECB0DF0895FDE0ECEDACDF0895FEE0A3
:100D9000E0E1A8DF0895FEE0E4E4A4DF0895FEE0CA
:100DA000E8E7A0DF0895FEE0EEE99CDF0895FEE0AD
:100DB000E8EB98DF0895FEE0EEEC94DF08954249F9
:100DC000454E56454E49444F532100002A2A2A4396
:100DD0004F434B2D5441494C2A2A000053656C6502
:100DE0006363696F6E65206D6F646F206465206F4B
:100DF0007065726163696F6E3A00312D426173698B
:100E0000636F20322D4176616E7A61646F0000005D
:100E100053656C656363696F6E65206265626964C2
:100E2000613A00312D4665726E657420322D576827
:100E30006973636F6C6120332D436F63612D436F62
:100E40006C61000053656C656363696F6E6520704B
:100E50006F74656E6369613A00312D436F72646F20
:100E600062657320322D4D6564696120332D496EB2
:100E700066616E74696C000053656C656363696FCD
:100E80006E65206265626964613A00312D46657263
:100E90006E657420322D576869736B790000496E56
:100EA00074726F64757A636100706F7263656E74DB
:100EB000616A653A20000000457370657265200024
:100EC000706F72206661766F722E2E2E00004C6954
:100ED00073746F21205265746972652073750062A6
:100EE000656269646120706F72206661766F72005E
:100EF0000000FF91EF910F910F700295202F0F913D
:100F00000F70022B0F93EF93FF930895FF91EF91D2
:100F10000F910F930F70202F0F9102950F70602E7D
:100F20000AE0609E3001621E6F92EF93FF93089576
:100F3000FF91EF910F910F930F700063202F0F918E
:100F40002F9302950F7000630F93EF93FF93089513
:100F5000FF91EF912F910F912295022B0F93EF9319
:100F6000FF930895FF91EF914F900AE0202E0ED04D
:100F7000042D402E4F92432C09D0042D402E4F9229
:100F8000032D302E3F92EF93FF93089500E0302E13
:100F900033944218E8F73A94420C0895CC24C39451
:100FA0000A181B08E0F7CA94089508E10093C100ED
:100FB00006E00093C20007E70093C40000E000933E
:100FC000C5000895FF91EF9105E509D0B7DE0ED079
:100FD0000F930CD00F930AD0EF93FF9308952091B5
:100FE000C00025FFFCCF0093C60008952091C000EB
:100FF00025FFFCCF0091C60008950E941A0860E00A
:1010000060FD0C940A08709184000E945C080E94A4
:101010009E06F6CF0E94B1060E943B0860E060FD8C
:101020000C941908709184000E945C080E949E062E
:10103000F6CF0895F8940091001426E9029F00E08D
:10104000B02E04E6A02E0E94CE0700E00093890097
:101050000C2D0093880000E0009380000EE00093C8
:10106000810002E000936F000091021428B1022B6E
:1010700008B978940895F8940091011426E9029F24
:1010800000E0B02E04E6A02E0E94CE0700E0009300
:1010900089000C2D0093880000E0009380000EE092
:1010A0000093810002E000936F000091031428B1C7
:1010B000022B08B9789408950E94460698E077FFBD
:1010C00001C007C080E30E94FF059A9549F0770FA1
:1010D000F6CF81E30E94FF059A9511F0770FEFCFCD
:0210E000089571
:1004000061E040984198429800E00093810018957F
:00000001FF
